:100000000C9446000C9465000C9465000C946500FB
:100010000C9465000C9465000C9465000C946500CC
:100020000C9465000C9465000C9465000C946500BC
:100030000C9465000C9463020C9465000C946500AC
:100040000C9465000C9465000C9465000C9465009C
:100050000C9465000C9465000C9465000C9465008C
:100060000C9465000C9465000C9465000C9465007C
:100070000C9465000C9465000C9465000C9465006C
:100080000C9465000C9465000C94650011241FBE4F
:10009000CFEFD0E4DEBFCDBF11E0A0E0B1E0E6EFEE
:1000A000F8E000E00BBF02C007900D92A231B1074B
:1000B000D9F721E0A2E1B1E001C01D92A133B2075E
:1000C000E1F70E9435030C9479040C940000CF935F
:1000D000DF9300D01F92CDB7DEB789837B836A831D
:1000E00089818A3031F48A819B81BC018DE00E9434
:1000F000670080EC90E0FC018081882F90E08072A6
:100100009927892BB1F386EC90E02981FC012083AB
:1001100080E090E00F900F900F90DF91CF910895C5
:10012000CF93DF93CDB7DEB72C970FB6F894DEBF31
:100130000FBECDBF6D837E838F83988729873A87D3
:100140004B875C878D819E81AF81B88529853A85F3
:100150004B855C85BC01CD010E945704DC01CB01BD
:1001600089839A83AB83BC8389819A81AB81BC816B
:10017000892B8A2B8B2B29F489859A85AB85BC85A5
:1001800011C089859A85AB85BC858D839E83AF839D
:10019000B88789819A81AB81BC8189879A87AB872F
:1001A000BC87D0CFBC01CD012C960FB6F894DEBF32
:1001B0000FBECDBFDF91CF910895CF93DF931F92F4
:1001C000CDB7DEB7898389818130E1F081EC90E0A1
:1001D00021EC30E0F90120812861FC01208382ECD0
:1001E00090E022EC30E0F90120812660FC012083C0
:1001F00084EC90E023E3FC01208385EC90E0FC019B
:1002000010821BC089EC90E029EC30E0F9012081DC
:100210002861FC0120838AEC90E02AEC30E0F901AF
:1002200020812660FC0120838CEC90E023E3FC011C
:1002300020838DEC90E0FC01108200000F90DF9194
:10024000CF910895CF93DF931F92CDB7DEB7898307
:100250008981813031F080EC90E0FC0180818072F6
:1002600005C088EC90E0FC01808180720F90DF91E6
:10027000CF910895CF93DF931F92CDB7DEB78983D7
:100280008981813031F080EC90E0FC0180818074C4
:1002900005C088EC90E0FC01808180740F90DF91B4
:1002A000CF910895CF93DF931F92CDB7DEB78983A7
:1002B0008981813031F080EC90E0FC018081807890
:1002C00005C088EC90E0FC01808180780F90DF9180
:1002D000CF910895CF93DF931F92CDB7DEB7898377
:1002E00089818130A1F006C086EC90E0FC0180811C
:1002F0008093180180EC90E0FC0180818823A4F3B6
:100300000CC08EEC90E0FC0180818093180188EC99
:1003100090E0FC0180818823A4F300000F90DF911E
:10032000CF910895CF93DF9300D0CDB7DEB7898307
:100330006A838A81813089F0000080EC90E0FC01C2
:100340008081882F90E080729927892BB1F386EC09
:1003500090E02981FC01208310C0000088EC90E02F
:10036000FC018081882F90E080729927892BB1F35E
:100370008EEC90E02981FC01208300000F900F900B
:10038000DF91CF910895CF93DF931F92CDB7DEB762
:1003900089838981813061F0000080EC90E0FC016C
:1003A00080818823D4F786EC90E0FC0180810BC02B
:1003B000000088EC90E0FC0180818823D4F78EEC6B
:1003C00090E0FC0180810F90DF91CF910895CF9351
:1003D000DF9300D000D0CDB7DEB769837A838B83FB
:1003E0009C8389819A81AB81BC8180930E0190931B
:1003F0000F01A0931001B093110180910E01909113
:100400000F01A0911001B0911101809313019093FD
:100410001401A0931501B093160100000F900F90E6
:100420000F900F90DF91CF910895CF93DF93CDB7C9
:10043000DEB781E890E02BE0FC01208388E890E0C3
:100440002DE730E0FC01318320838FE690E022E04D
:10045000FC01208384E890E0FC01118210828091ED
:100460000E0190910F01A0911001B09111018093A4
:10047000130190931401A0931501B09316018FE519
:1004800090E02FE530E0F90120812068FC01208315
:100490000000DF91CF910895CF93DF93CDB7DEB702
:1004A00081E890E0FC0110820000DF91CF91089577
:1004B000CF93DF93CDB7DEB781E0809312010000C8
:1004C000DF91CF9108951F920F9200905F000F92DD
:1004D000112400905B000F922F933F934F935F93F3
:1004E0006F937F938F939F93AF93BF93EF93FF93FC
:1004F000CF93DF93CDB7DEB78091130190911401B4
:10050000A0911501B09116010197A109B10980933D
:10051000130190931401A0931501B09316018091DB
:10052000130190911401A0911501B0911601892B2E
:100530008A2B8B2B91F40E94580280910E0190918E
:100540000F01A0911001B0911101809313019093BC
:100550001401A0931501B09316010000DF91CF9113
:10056000FF91EF91BF91AF919F918F917F916F918B
:100570005F914F913F912F910F9000925B000F90F0
:1005800000925F000F901F901895CF93DF9300D0DB
:10059000CDB7DEB79A8389839091170181E09923C3
:1005A00009F080E08093170189819A81892BF1F409
:1005B000809117018823E9F080E00E9422018823BE
:1005C000C1F09091190181E0992309F080E08093B6
:1005D000190182E290E0209119012170FC01208331
:1005E0008091190160E00E94920103C01A82198271
:1005F00001C0000089819A810F900F90DF91CF9107
:100600000895CF93DF9300D0CDB7DEB79A83898367
:100610009091170181E0992309F080E08093170100
:1006200089819A81892BB1F4809117018823A9F4DB
:1006300080E00E945201882381F080E00E94C30183
:1006400080931A0182E290E020911A012170FC014E
:10065000208303C01A82198201C0000089819A8117
:100660000F900F90DF91CF9108950F931F93CF9329
:10067000DF93CDB7DEB728970FB6F894DEBF0FBE75
:10068000CDBF81E290E02FEFFC01208382E290E079
:10069000FC01108280E00E94DD008BE191E09E83EE
:1006A0008D8386E291E098878F8382E090E09C833F
:1006B0008B8310921B0184E690E0A0E0B0E0809371
:1006C0001C0190931D01A0931E01B0931F01809106
:1006D0001C0190911D01A0911E01B0911F018093FA
:1006E000200190932101A0932201B093230185EC76
:1006F00092E090932501809324011092260184E1D9
:1007000090E0A0E0B0E08093270190932801A093AF
:100710002901B0932A018091270190912801A0918D
:100720002901B0912A0180932B0190932C01A09371
:100730002D01B0932E0181E093E0909330018093DE
:100740002F016AE070E080E090E00E94E7010E94E3
:1007500015021A8219829BC089819A81880F991F7C
:100760009E012F5F3F4F820F931F0496FC018081F3
:100770009181FC01258136814781508589819A814B
:10078000880F991FBE016F5F7F4F860F971F0496DA
:10079000FC0180819181FC0181819281A381B481DE
:1007A000281739074A075B0709F045C089819A81F4
:1007B000880F991F9E012F5F3F4F820F931F049652
:1007C000FC010081118189819A81880F991F9E0106
:1007D0002F5F3F4F820F931F0496FC018081918110
:1007E000FC012185328589819A81880F991FAE018C
:1007F0004F5F5F4F840F951F0496FC0180819181AC
:10080000FC018081082E000C990BF9010995F80173
:10081000808389819A81880F991F9E012F5F3F4FA6
:10082000820F931F0496FC0180819181FC01158247
:1008300016821782108689819A81880F991F9E01DE
:100840002F5F3F4F820F931F0496FC01208131815F
:1008500089819A81880F991FAE014F5F5F4F840F86
:10086000951F0496FC0180819181FC018581968110
:10087000A781B0850A96A11DB11DF90185839683D4
:10088000A783B08789819A8101969A838983298178
:100890003A818B819C812817390708F45DCF0000CD
:1008A000809112018823E1F31092120152CFA1E24C
:1008B0001A2EAA1BBB1BFD010DC0AA1FBB1FEE1FDA
:1008C000FF1FA217B307E407F50720F0A21BB30B25
:1008D000E40BF50B661F771F881F991F1A9469F7A1
:1008E00060957095809590959B01AC01BD01CF01FD
:0608F0000895F894FFCF0B
:1008F6000000000200000000670000000000010088
:020906000000EF
:00000001FF
